{
  "_format": "hh-sol-artifact-1",
  "contractName": "DonasiChain",
  "sourceName": "contracts/DonasiChain.sol",
  "abi": [
    {
      "inputs": [],
      "stateMutability": "nonpayable",
      "type": "constructor"
    },
    {
      "anonymous": false,
      "inputs": [
        {
          "indexed": true,
          "internalType": "address",
          "name": "donor",
          "type": "address"
        },
        {
          "indexed": false,
          "internalType": "uint256",
          "name": "amount",
          "type": "uint256"
        },
        {
          "indexed": false,
          "internalType": "uint256",
          "name": "timestamp",
          "type": "uint256"
        }
      ],
      "name": "DonationReceived",
      "type": "event"
    },
    {
      "anonymous": false,
      "inputs": [
        {
          "indexed": true,
          "internalType": "address",
          "name": "owner",
          "type": "address"
        },
        {
          "indexed": false,
          "internalType": "uint256",
          "name": "amount",
          "type": "uint256"
        },
        {
          "indexed": false,
          "internalType": "uint256",
          "name": "timestamp",
          "type": "uint256"
        }
      ],
      "name": "FundsWithdrawn",
      "type": "event"
    },
    {
      "inputs": [],
      "name": "donate",
      "outputs": [],
      "stateMutability": "payable",
      "type": "function"
    },
    {
      "inputs": [],
      "name": "getAllDonations",
      "outputs": [
        {
          "components": [
            {
              "internalType": "address",
              "name": "donor",
              "type": "address"
            },
            {
              "internalType": "uint256",
              "name": "amount",
              "type": "uint256"
            },
            {
              "internalType": "uint256",
              "name": "timestamp",
              "type": "uint256"
            }
          ],
          "internalType": "struct DonasiChain.Donation[]",
          "name": "",
          "type": "tuple[]"
        }
      ],
      "stateMutability": "view",
      "type": "function"
    },
    {
      "inputs": [
        {
          "internalType": "uint256",
          "name": "index",
          "type": "uint256"
        }
      ],
      "name": "getDonation",
      "outputs": [
        {
          "internalType": "address",
          "name": "donor",
          "type": "address"
        },
        {
          "internalType": "uint256",
          "name": "amount",
          "type": "uint256"
        },
        {
          "internalType": "uint256",
          "name": "timestamp",
          "type": "uint256"
        }
      ],
      "stateMutability": "view",
      "type": "function"
    },
    {
      "inputs": [],
      "name": "getDonationsCount",
      "outputs": [
        {
          "internalType": "uint256",
          "name": "",
          "type": "uint256"
        }
      ],
      "stateMutability": "view",
      "type": "function"
    },
    {
      "inputs": [
        {
          "internalType": "address",
          "name": "donor",
          "type": "address"
        }
      ],
      "name": "getDonorTotal",
      "outputs": [
        {
          "internalType": "uint256",
          "name": "",
          "type": "uint256"
        }
      ],
      "stateMutability": "view",
      "type": "function"
    },
    {
      "inputs": [],
      "name": "getTotalDonations",
      "outputs": [
        {
          "internalType": "uint256",
          "name": "",
          "type": "uint256"
        }
      ],
      "stateMutability": "view",
      "type": "function"
    },
    {
      "inputs": [],
      "name": "owner",
      "outputs": [
        {
          "internalType": "address",
          "name": "",
          "type": "address"
        }
      ],
      "stateMutability": "view",
      "type": "function"
    },
    {
      "inputs": [],
      "name": "totalDonations",
      "outputs": [
        {
          "internalType": "uint256",
          "name": "",
          "type": "uint256"
        }
      ],
      "stateMutability": "view",
      "type": "function"
    },
    {
      "inputs": [],
      "name": "withdraw",
      "outputs": [],
      "stateMutability": "nonpayable",
      "type": "function"
    }
  ],
  "bytecode": "0x608060405234801561001057600080fd5b50336000806101000a81548173ffffffffffffffffffffffffffffffffffffffff021916908373ffffffffffffffffffffffffffffffffffffffff160217905550610fb5806100606000396000f3fe6080604052600436106100865760003560e01c8063c93527d811610059578063c93527d814610123578063ca4f36541461014e578063de2ed8931461018b578063ed88c68e146101b6578063ef07a81f146101c057610086565b806338a59a071461008b5780633ccfd60b146100b6578063777c658f146100cd5780638da5cb5b146100f8575b600080fd5b34801561009757600080fd5b506100a06101ff565b6040516100ad9190610a81565b60405180910390f35b3480156100c257600080fd5b506100cb6102c8565b005b3480156100d957600080fd5b506100e2610565565b6040516100ef9190610ab2565b60405180910390f35b34801561010457600080fd5b5061010d61056f565b60405161011a9190610adc565b60405180910390f35b34801561012f57600080fd5b50610138610593565b6040516101459190610ab2565b60405180910390f35b34801561015a57600080fd5b5061017560048036038101906101709190610b28565b6105a0565b6040516101829190610ab2565b60405180910390f35b34801561019757600080fd5b506101a06105e9565b6040516101ad9190610ab2565b60405180910390f35b6101be6105ef565b005b3480156101cc57600080fd5b506101e760048036038101906101e29190610b81565b610832565b6040516101f693929190610bae565b60405180910390f35b60606002805480602002602001604051908101604052809291908181526020016000905b828210156102bf57838290600052602060002090600302016040518060600160405290816000820160009054906101000a900473ffffffffffffffffffffffffffffffffffffffff1673ffffffffffffffffffffffffffffffffffffffff1673ffffffffffffffffffffffffffffffffffffffff1681526020016001820154815260200160028201548152505081526020019060010190610223565b50505050905090565b60008054906101000a900473ffffffffffffffffffffffffffffffffffffffff1673ffffffffffffffffffffffffffffffffffffffff163373ffffffffffffffffffffffffffffffffffffffff1614610356576040517f08c379a000000000000000000000000000000000000000000000000000000000815260040161034d90610c42565b60405180910390fd5b600460009054906101000a900460ff16156103a6576040517f08c379a000000000000000000000000000000000000000000000000000000000815260040161039d90610cae565b60405180910390fd5b6001600460006101000a81548160ff021916908315150217905550600047905060008111610409576040517f08c379a000000000000000000000000000000000000000000000000000000000815260040161040090610d1a565b60405180910390fd5b60008060009054906101000a900473ffffffffffffffffffffffffffffffffffffffff1673ffffffffffffffffffffffffffffffffffffffff168260405161045090610d6b565b60006040518083038185875af1925050503d806000811461048d576040519150601f19603f3d011682016040523d82523d6000602084013e610492565b606091505b50509050806104d6576040517f08c379a00000000000000000000000000000000000000000000000000000000081526004016104cd90610dcc565b60405180910390fd5b60008054906101000a900473ffffffffffffffffffffffffffffffffffffffff1673ffffffffffffffffffffffffffffffffffffffff167ffbc3a599b784fe88772fc5abcc07223f64ca0b13acc341f4fb1e46bef0510eb4834260405161053e929190610dec565b60405180910390a250506000600460006101000a81548160ff021916908315150217905550565b6000600154905090565b60008054906101000a900473ffffffffffffffffffffffffffffffffffffffff1681565b6000600280549050905090565b6000600360008373ffffffffffffffffffffffffffffffffffffffff1673ffffffffffffffffffffffffffffffffffffffff168152602001908152602001600020549050919050565b60015481565b600460009054906101000a900460ff161561063f576040517f08c379a000000000000000000000000000000000000000000000000000000000815260040161063690610cae565b60405180910390fd5b6001600460006101000a81548160ff0219169083151502179055506000341161069d576040517f08c379a000000000000000000000000000000000000000000000000000000000815260040161069490610e61565b60405180910390fd5b34600160008282546106af9190610eb0565b9250508190555034600360003373ffffffffffffffffffffffffffffffffffffffff1673ffffffffffffffffffffffffffffffffffffffff16815260200190815260200160002060008282546107059190610eb0565b92505081905550600260405180606001604052803373ffffffffffffffffffffffffffffffffffffffff16815260200134815260200142815250908060018154018082558091505060019003906000526020600020906003020160009091909190915060008201518160000160006101000a81548173ffffffffffffffffffffffffffffffffffffffff021916908373ffffffffffffffffffffffffffffffffffffffff160217905550602082015181600101556040820151816002015550503373ffffffffffffffffffffffffffffffffffffffff167f4b0304ab2f313234b1cea012339c8f8c3bf2c8bb357d81a579cfdb35d2e3d030344260405161080d929190610dec565b60405180910390a26000600460006101000a81548160ff021916908315150217905550565b6000806000600280549050841061087e576040517f08c379a000000000000000000000000000000000000000000000000000000000815260040161087590610f30565b60405180910390fd5b60006002858154811061089457610893610f50565b5b90600052602060002090600302016040518060600160405290816000820160009054906101000a900473ffffffffffffffffffffffffffffffffffffffff1673ffffffffffffffffffffffffffffffffffffffff1673ffffffffffffffffffffffffffffffffffffffff168152602001600182015481526020016002820154815250509050806000015181602001518260400151935093509350509193909250565b600081519050919050565b600082825260208201905092915050565b6000819050602082019050919050565b600073ffffffffffffffffffffffffffffffffffffffff82169050919050565b600061098d82610962565b9050919050565b61099d81610982565b82525050565b6000819050919050565b6109b6816109a3565b82525050565b6060820160008201516109d26000850182610994565b5060208201516109e560208501826109ad565b5060408201516109f860408501826109ad565b50505050565b6000610a0a83836109bc565b60608301905092915050565b6000602082019050919050565b6000610a2e82610936565b610a388185610941565b9350610a4383610952565b8060005b83811015610a74578151610a5b88826109fe565b9750610a6683610a16565b925050600181019050610a47565b5085935050505092915050565b60006020820190508181036000830152610a9b8184610a23565b905092915050565b610aac816109a3565b82525050565b6000602082019050610ac76000830184610aa3565b92915050565b610ad681610982565b82525050565b6000602082019050610af16000830184610acd565b92915050565b600080fd5b610b0581610982565b8114610b1057600080fd5b50565b600081359050610b2281610afc565b92915050565b600060208284031215610b3e57610b3d610af7565b5b6000610b4c84828501610b13565b91505092915050565b610b5e816109a3565b8114610b6957600080fd5b50565b600081359050610b7b81610b55565b92915050565b600060208284031215610b9757610b96610af7565b5b6000610ba584828501610b6c565b91505092915050565b6000606082019050610bc36000830186610acd565b610bd06020830185610aa3565b610bdd6040830184610aa3565b949350505050565b600082825260208201905092915050565b7f4e6f74206f776e65720000000000000000000000000000000000000000000000600082015250565b6000610c2c600983610be5565b9150610c3782610bf6565b602082019050919050565b60006020820190508181036000830152610c5b81610c1f565b9050919050565b7f5265656e7472616e637900000000000000000000000000000000000000000000600082015250565b6000610c98600a83610be5565b9150610ca382610c62565b602082019050919050565b60006020820190508181036000830152610cc781610c8b565b9050919050565b7f4e6f2066756e6473000000000000000000000000000000000000000000000000600082015250565b6000610d04600883610be5565b9150610d0f82610cce565b602082019050919050565b60006020820190508181036000830152610d3381610cf7565b9050919050565b600081905092915050565b50565b6000610d55600083610d3a565b9150610d6082610d45565b600082019050919050565b6000610d7682610d48565b9150819050919050565b7f5769746864726177206661696c65640000000000000000000000000000000000600082015250565b6000610db6600f83610be5565b9150610dc182610d80565b602082019050919050565b60006020820190508181036000830152610de581610da9565b9050919050565b6000604082019050610e016000830185610aa3565b610e0e6020830184610aa3565b9392505050565b7f416d6f756e74206d757374206265203e20300000000000000000000000000000600082015250565b6000610e4b601283610be5565b9150610e5682610e15565b602082019050919050565b60006020820190508181036000830152610e7a81610e3e565b9050919050565b7f4e487b7100000000000000000000000000000000000000000000000000000000600052601160045260246000fd5b6000610ebb826109a3565b9150610ec6836109a3565b9250828201905080821115610ede57610edd610e81565b5b92915050565b7f496e76616c696420696e64657800000000000000000000000000000000000000600082015250565b6000610f1a600d83610be5565b9150610f2582610ee4565b602082019050919050565b60006020820190508181036000830152610f4981610f0d565b9050919050565b7f4e487b7100000000000000000000000000000000000000000000000000000000600052603260045260246000fdfea2646970667358221220b9a7afd35f4745d95d70689f462e79954699cae33e223be185ca1fac445886a564736f6c63430008180033",
  "linkReferences": {},
  "deployedLinkReferences": {}
}